:1000000012C12CC12BC12AC129C128C127C126C1B7
:1000100025C124C123C1DEC185C220C18DC21EC13C
:100020001DC11CC11BC10000000000000000000039
:1000300000000000000000000000000000000300BD
:1000400000000100000003000000030000000700A2
:1000500000000300000007000000070000000F0080
:100060000000070000000F0000000F0000001F004C
:1000700000000F0000001F0000001F0000003F00F4
:1000800000001F0000003F0000003F0000007F0054
:1000900000003F0000007F0000007F000000FF0024
:1000A00000007F000000FF000000FF000000FF01D3
:1000B0000000FF000000FF010000FF010000FF033F
:1000C0000000FF010000FF030000FF030000FF0726
:1000D0000000FF030000FF070000FF070000FF0F04
:1000E0000000FF070000FF0F0000FF0F0000FF1FD0
:1000F0000000FF0F0000FF1F0000FF1F0000FF3F78
:100100000000FF1F0000FF3F0000FF3F0000FF7FD7
:100110000000FF3F0000FF7F0000FF7F0000FFFFA7
:100120000000FF7F0000FFFF0000FFFF0000FFFF57
:100130000100FFFF0000FFFF0100FFFF0100FFFFC4
:100140000300FFFF0100FFFF0300FFFF0300FFFFAD
:100150000700FFFF0300FFFF0700FFFF0700FFFF8F
:100160000F00FFFF0700FFFF0F00FFFF0F00FFFF63
:100170001F00FFFF0F00FFFF1F00FFFF1F00FFFF1B
:100180003F00FFFF1F00FFFF3F00FFFF3F00FFFF9B
:100190007F00FFFF3F00FFFF7F00FFFF7F00FFFFAB
:1001A000FF00FFFF7F00FFFFFF00FFFFFF00FFFFDB
:1001B000FF01FFFFFF00FFFFFF01FFFFFF01FFFF48
:1001C000FF03FFFFFF01FFFFFF03FFFFFF03FFFF31
:1001D000FF07FFFFFF03FFFFFF07FFFFFF07FFFF13
:1001E000FF0FFFFFFF07FFFFFF0FFFFFFF0FFFFFE7
:1001F000FF1FFFFFFF0FFFFFFF1FFFFFFF1FFFFF9F
:10020000FF3FFFFFFF1FFFFFFF3FFFFFFF3FFFFF1E
:10021000FF7FFFFFFF3FFFFFFF7FFFFFFF7FFFFF2E
:10022000FFFFFFFFFF7F11241FBECFE5D4E0DEBF3D
:10023000CDBF10E0A0E6B0E0ECEAFCE002C0059023
:100240000D92A236B107D9F711E0A2E6B0E001C0E5
:100250001D92A833B107E1F702D226C5D1CE809115
:1002600033018823C1F09A9917C088E28093610016
:100270008091670090916800909364008093630080
:10028000809163009091640097FD13C0C098109214
:10029000330110926000089510926200C09A80E0CD
:1002A0009DE7909364008093630084E080936100F5
:1002B0000895C09A80916300909164009195819512
:1002C00091099093640080936300E1CF80913301A2
:1002D0008823C1F09A995CC088E280936100809184
:1002E0006700909168009093640080936300809110
:1002F00063009091640097FD60C0C0981092330134
:100300001092600090916100809166008F5F8093F1
:100310006600981730F48091630090916400892BF7
:10032000C1F4809165008F5F8B3F20F110926500D2
:10033000809163009091640081329340FCF480913D
:10034000610091E08E3190F5890F80936100C19832
:100350000895109266008091630090916400019767
:100360009093640080936300C19A809165008F5FD1
:100370008B3FE0F680936500C198089580916100FD
:1003800091E08230A8F0891B80936100C1980895A4
:1003900010926200C09A80E09DE790936400809381
:1003A000630084E08093610094E0AECF90E0CCCF16
:1003B00090E0891B80936100E9CFC09A809163002F
:1003C0009091640091958195910990936400809338
:1003D000630094CF1F920F920FB60F9211242F93A8
:1003E0003F934F935F936F937F938F939F93AF93BD
:1003F000BF93EF93FF93CF93DF9300D0CDB7DEB7DA
:100400008091320180932A018CB1809332018091D6
:100410003101811122C08F98979880912A01811112
:1004200007C080913201811103C082E080932701CF
:100430000F900F90DF91CF91FF91EF91BF91AF910E
:100440009F918F917F916F915F914F913F912F91EC
:100450000F900FBE0F901F901895809127018F5F0E
:100460008093270181B380933401369A1A821982CE
:1004700089819A814E974CF489819A8101969A8359
:10048000898389819A814E97BCF320DF80912D0169
:10049000882351F09B9908C081E080932E018091C0
:1004A0002F01807880932F0180912F0186FF32C029
:1004B000E0E0F0E080913501EE0FFF1FEE0FFF1F2F
:1004C000EE0FFF1F869586958695E80FF11DEA5D74
:1004D000FF4FE49180913501F0E0877002C0F595FF
:1004E000E7958A95E2F7E0FF1AC090912F0182B359
:1004F0008F779078892B82BB8F9A809135018F5F9F
:1005000080933501809135018F3309F091CF10929E
:1005100035018ECFE0912F01EF73F0E0CBCF9798AC
:100520008F98EBCF1F920F920FB60F9211240F905E
:100530000FBE0F901F9018951F920F920FB60F923B
:1005400011242F933F934F938F939F9324B185B1A1
:1005500090E0982F8827820F911D20912B013091D8
:100560002C014091340147FD1FC0820F931F0024CE
:10057000220F331F001C220F331F001C232F302D8E
:10058000821B930B2091340127FD13C090932C0103
:1005900080932B019F918F914F913F912F910F90BD
:1005A0000FBE0F901F9018952091280130912901BE
:1005B000DCCF9C01215036442F3F324730F48F98D6
:1005C00020912F01206420932F0190932901809383
:1005D0002801E0CF90916200E92FF0E070E0A82FB1
:1005E000BB27A7FDB095EE0FFF1FE60FF71FEE0F1D
:1005F000FF1FE959FF4F208131812A0F3B1F3183B3
:100600002083911113C0FB01EE0FFF1FE559FF4F2F
:100610004FE250E0208131812A0F3B1F318320833C
:1006200041505109349641155105A1F787FD06C087
:10063000C098B0936400A09363000895C09AB195E8
:10064000A195B109B0936400A0936300089581114E
:1006500002C0AC9A0895AC981092300108952F9280
:100660003F924F925F927F928F929F92AF92BF92F2
:10067000CF92DF92EF92FF920F931F93CF93DF936E
:100680008CE781BB82BB82E384BB8FE387BB8CE1B9
:1006900088BB8FE886B907E610E0C3E0D0E0CE0162
:1006A000DED2F80191838083CE010296D8D2F80180
:1006B0009383828324960C5F1F4FF0E0C33CDF07D7
:1006C00071F78FE189B988E98AB9109227018FE71C
:1006D0008093360181E08093320180932A012AE0E1
:1006E00088E190E00FB6F894A89581BD0FBE21BDBA
:1006F0007894AC981092300190913601DD24D39417
:1007000022242394312CD4E04D2E512C12E0E12EE2
:10071000F12C08E1702E812C89E1982EA12C26EE77
:10072000B22E3FE7C32E809127018230E1F710926D
:1007300027018FEF890F11F490E0F5CF80933601F8
:1007400080912A01811122C08091320181111EC045
:10075000C092360110923501D0923201D0922A0116
:10076000D09231018091630090916400892B39F41B
:10077000809130018F5F809330018A3F19F09FE7AD
:10078000A895D1CFAC9A90913601FACFC0912A01A9
:10079000809132018370D0E0D82B109132011695F0
:1007A000169580E090E05BD2F8948C179D07A9F035
:1007B000AC014F5F5F4F4C175D0709F469C0AC0196
:1007C0004E5F5F4F03964C175D07D9F08C179D075E
:1007D000C1F0789490913601A6CF113009F499C0F8
:1007E000123009F4C3C01D3308F4A2C080912F0158
:1007F00086FDD6C080912B0190912C01892F8CB958
:10080000E8CF61E0C817D90709F060E0AC98109212
:1008100030011D3308F44CC0113309F451C11233B7
:1008200009F434C1133309F4F0C0143309F4D3C00C
:10083000153309F4BDC1163309F4B7C1173309F4F0
:10084000C3C1183309F4BDC1193309F4B7C11A3350
:1008500009F4B1C11B3309F4FFC11C3309F4F3C11E
:100860001D3309F4EDC11E3309F4B1C18091630059
:100870009091640030912E0120916000220F230F8F
:10088000220F31E0892B09F430E0230F2CB9A1CFDE
:100890001F3309F468C01E3309F47FC082B3212FCF
:1008A0002F71220F220F8378282B22BB1CB891CFE7
:1008B00078BA103308F048C1309162003117B1F2B4
:1008C000E12FF0E0EE0FFF1FE60FF11DEE0FFF1F0F
:1008D000E959FF4F80819181E32FF0E0409137018A
:1008E000EE0FFF1FE40FF11DEE0FFF1FE959FF4F41
:1008F00040815181311708F048C0C098841B950B86
:1009000090936400809363001093620060933701BA
:10091000ADCF80912F01806880932F0180912801B5
:10092000909129019CB9B0922901A092280151CF40
:10093000111139C080912B0190912C019CB98091AB
:100940002F01807880932F0110922E0110922D019B
:1009500080912F0187FD3CC080E099E190932901AF
:100960008093280136CFA99A1CB833CF80912F01EC
:100970008F7780932F0180912801909129019CB954
:10098000909229018092280124CFC09A481B590BCC
:100990005093640040936300B7CFA9981CB819CF57
:1009A00080E08CB916CF80912F0186FDCBC080915D
:1009B0002B0190912C01892F8CB980912E018111EE
:1009C00008CF80912F01807C812B80932F0101CF54
:1009D00080E096EEC3CF20916200E22FF0E070E05D
:1009E000EE0FFF1FE60FF71FEE0FFF1FE959FF4F36
:1009F00080819181049691838083222301F1C098A4
:100A0000509264004092630031CF20916200E22F47
:100A1000F0E070E0EE0FFF1FE60FF71FEE0FFF1F75
:100A2000E959FF4F8081918102979183808322232E
:100A3000C9F0C09AF0926400E092630017CFFB0106
:100A40003296EE0FFF1FE959FF4F8FE290E02081B1
:100A500031812C5F3F4F318320830197349600977B
:100A6000B1F7CDCFFB013296EE0FFF1FE959FF4FD3
:100A700081E090E02081318122503109318320834F
:100A80000196349680339105A9F7D3CF2091620067
:100A9000E22FF0E070E0EE0FFF1FE60FF71FEE0F02
:100AA000FF1FE959FF4F80819181029691838083D6
:100AB000222309F1C098F0926400E0926300D6CE40
:100AC00020916200A22FB0E070E0AA0FBB1FA60F1A
:100AD000B71FAA0FBB1FA959BF4F8D919C911197AA
:100AE00001978D939C932223C9F0C09A30926400A1
:100AF00020926300BBCEFB013296EE0FFF1FE95937
:100B0000FF4F8FE290E0208131812E5F3F4F318394
:100B10002083019734960097B1F7CCCFFB01329632
:100B2000EE0FFF1FE959FF4F2FE230E080819181E6
:100B30000197918380832150310934962115310525
:100B4000A9F7D3CF80E038CF103309F065CE2091DC
:100B50006200A22FB0E070E0AA0FBB1FA60FB71F64
:100B6000AA0FBB1FA959BF4F8D919C911197019658
:100B70008D939C93211113C0FB013296EE0FFF1F42
:100B8000E959FF4F2FE230E08081918101969183F6
:100B9000808321503109349621153105A9F7C09879
:100BA000309264002092630061CE88E013DD5ECE57
:100BB0008CEF10DD5BCE80E20DDD58CE80EF0ADDDC
:100BC00055CE80E107DD52CE88EF04DD4FCE809117
:100BD00063009091640030912E0120916000220FFB
:100BE000230F220F31E0892B09F430E0230F2CB9B9
:100BF00003E010E0C7E6D0E068817981C80134D015
:100C0000A8956A817B81C80102962ED0A89524966A
:100C10000C5F1F4F81E0C732D80771F7DF91CF918A
:100C20001F910F91FF90EF90DF90CF90BF90AF900A
:100C30009F908F907F905F904F903F902F9008955E
:100C4000D0922D0113CE9A9B11CED09233013092C7
:100C50006400209263000ACE80EEBCDC07CEA8E1DF
:100C6000B0E042E050E005C012D0272F11C0DC01F7
:100C7000CB01FC01E199FECF06C0FFBBEEBBE09AC1
:100C800031960DB20D9241505040B8F70895262F7D
:100C9000E199FECF9FBB8EBB2DBB0FB6F894E29AB5
:0C0CA000E19A0FBE01960895F894FFCF72
:020CAC0001281D
:00000001FF
