:1000000012C12CC12BC12AC129C128C127C126C1B7
:1000100025C124C123C1FCC1A3C220C1ABC21EC1E2
:100020001DC11CC11BC10000000000000000000039
:1000300000000000000000000000000000000300BD
:1000400000000100000003000000030000000700A2
:1000500000000300000007000000070000000F0080
:100060000000070000000F0000000F0000001F004C
:1000700000000F0000001F0000001F0000003F00F4
:1000800000001F0000003F0000003F0000007F0054
:1000900000003F0000007F0000007F000000FF0024
:1000A00000007F000000FF000000FF000000FF01D3
:1000B0000000FF000000FF010000FF010000FF033F
:1000C0000000FF010000FF030000FF030000FF0726
:1000D0000000FF030000FF070000FF070000FF0F04
:1000E0000000FF070000FF0F0000FF0F0000FF1FD0
:1000F0000000FF0F0000FF1F0000FF1F0000FF3F78
:100100000000FF1F0000FF3F0000FF3F0000FF7FD7
:100110000000FF3F0000FF7F0000FF7F0000FFFFA7
:100120000000FF7F0000FFFF0000FFFF0000FFFF57
:100130000100FFFF0000FFFF0100FFFF0100FFFFC4
:100140000300FFFF0100FFFF0300FFFF0300FFFFAD
:100150000700FFFF0300FFFF0700FFFF0700FFFF8F
:100160000F00FFFF0700FFFF0F00FFFF0F00FFFF63
:100170001F00FFFF0F00FFFF1F00FFFF1F00FFFF1B
:100180003F00FFFF1F00FFFF3F00FFFF3F00FFFF9B
:100190007F00FFFF3F00FFFF7F00FFFF7F00FFFFAB
:1001A000FF00FFFF7F00FFFFFF00FFFFFF00FFFFDB
:1001B000FF01FFFFFF00FFFFFF01FFFFFF01FFFF48
:1001C000FF03FFFFFF01FFFFFF03FFFFFF03FFFF31
:1001D000FF07FFFFFF03FFFFFF07FFFFFF07FFFF13
:1001E000FF0FFFFFFF07FFFFFF0FFFFFFF0FFFFFE7
:1001F000FF1FFFFFFF0FFFFFFF1FFFFFFF1FFFFF9F
:10020000FF3FFFFFFF1FFFFFFF3FFFFFFF3FFFFF1E
:10021000FF7FFFFFFF3FFFFFFF7FFFFFFF7FFFFF2E
:10022000FFFFFFFFFF7F11241FBECFE5D4E0DEBF3D
:10023000CDBF10E0A0E6B0E0E4E1FDE002C0059033
:100240000D92A236B107D9F711E0A2E6B0E001C0E5
:100250001D92A933B107E1F722D25AC5D1CE8091C0
:100260003301882329F180913801882349F0809156
:10027000630090916400892BD9F41092380108959D
:100280009A9917C088E280936100809167009091ED
:100290006800909364008093630080916300909164
:1002A000640097FD13C0C098109233011092600053
:1002B000089510926200C09A80E09DE790936400D8
:1002C0008093630084E0809361000895C09A8091D8
:1002D00063009091640091958195910990936400D9
:1002E00080936300E1CF80913301882359F080919E
:1002F0003801882371F18091630090916400892B0B
:1003000009F461C090916100809166008F5F8093D5
:100310006600981730F48091630090916400892BF7
:1003200089F5809165008F5F8B3FE8F11092650041
:10033000809163009091640081329340C4F5809174
:10034000610091E08E31E8F5890F80936100C198DA
:1003500008959A9942C088E2809361008091670075
:100360009091680090936400809363008091630093
:100370009091640097FD3FC0C09810923301109295
:100380006000C0CF1092660080916300909164007D
:1003900001979093640080936300C19A80916500F7
:1003A0008F5F8B3F18F680936500C1980895809108
:1003B000610091E0823060F0891B80936100C198F8
:1003C000089590E0C1CF10923801909161009CCFC8
:1003D00090E0891B80936100F2CF10926200C09A76
:1003E00080E09DE7909364008093630084E08093B5
:1003F000610094E089CFC09A80916300909164007D
:100400009195819591099093640080936300B5CF95
:100410001F920F920FB60F9211242F933F934F9379
:100420005F936F937F938F939F93AF93BF93EF935C
:10043000FF93CF93DF9300D0CDB7DEB78091320129
:1004400080932A018CB18093320180913101811116
:1004500022C08F98979880912A01811107C08091BE
:100460003201811103C082E0809327010F900F9029
:10047000DF91CF91FF91EF91BF91AF919F918F91BC
:100480007F916F915F914F913F912F910F900FBE90
:100490000F901F901895809127018F5F80932701FF
:1004A00081B380933401369A1A82198289819A81A4
:1004B0004E974CF489819A8101969A838983898128
:1004C0009A814E97BCF30FDF80912D01882351F064
:1004D0009B9908C081E080932E0180912F01807844
:1004E00080932F0180912F0186FF32C0E0E0F0E081
:1004F00080913501EE0FFF1FEE0FFF1FEE0FFF1F64
:10050000869586958695E80FF11DEA5DFF4FE4918B
:1005100080913501F0E0877002C0F595E7958A95E6
:10052000E2F7E0FF1AC090912F0182B38F779078A5
:10053000892B82BB8F9A809135018F5F8093350123
:10054000809135018F3309F091CF109235018ECF14
:10055000E0912F01EF73F0E0CBCF97988F98EBCF1E
:100560001F920F920FB60F9211240F900FBE0F9093
:100570001F9018951F920F920FB60F9211242F9370
:100580003F934F938F939F9324B185B190E0982F21
:100590008827820F911D20912B0130912C014091D1
:1005A000340147FD1FC0820F931F0024220F331F09
:1005B000001C220F331F001C232F302D821B930B96
:1005C0002091340127FD13C090932C0180932B01BF
:1005D0009F918F914F913F912F910F900FBE0F9050
:1005E0001F9018952091280130912901DCCF9C01A2
:1005F000215036442F3F324730F48F9820912F01FD
:10060000206420932F019093290180932801E0CF4B
:1006100090916200A92FB0E0E0913701F0E0682FDF
:10062000772767FD7095AA0FBB1FAE0FBF1FAA0FDC
:10063000BB1FA959BF4F2D913C911197260F371F12
:100640002D933C93911112C0EE0FFF1FE559FF4F00
:100650004FE250E020813181260F371F3183208304
:1006600041505109349641155105A1F787FD06C047
:10067000C09870936400609363000895C09A719568
:10068000619571097093640060936300089581110E
:1006900002C0AC9A0895AC981092300108952F9240
:1006A0003F924F925F927F928F929F92AF92BF92B2
:1006B000CF92DF92EF92FF920F931F93CF93DF932E
:1006C0008CE781BB82BB82E384BB8FE387BB8CE179
:1006D00088BB8FE886B907E610E0C3E0D0E0CE0122
:1006E000F2D2F80191838083CE010296ECD2F80118
:1006F0009383828324960C5F1F4FF0E0C33CDF0797
:1007000071F78FE189B988E98AB9109227018FE7DB
:100710008093360181E08093320180932A012AE0A0
:1007200088E190E00FB6F894A89581BD0FBE21BD79
:100730007894AC981092300190913601DD24D394D6
:1007400022242394312C14E0412E512C02E0E02E7F
:10075000F12C88E1782E812C29E1922EA12C36EE05
:10076000B32E4FE7C42E809127018230E1F710921B
:1007700027018FEF890F11F490E0F5CF80933601B8
:1007800080912A01811122C08091320181111EC005
:10079000C092360110923501D0923201D0922A01D6
:1007A000D09231018091630090916400892B39F4DB
:1007B000809130018F5F809330018A3F19F09FE76D
:1007C000A895D1CFAC9A90913601FACFC0912A0169
:1007D000809132018370D0E0D82B109132011695B0
:1007E000169580E090E06FD2F8948C179D07A9F0E1
:1007F0009C012F5F3F4F2C173D0709F461C09C01FE
:100800002E5F3F4F03962C173D07D9F08C179D079D
:10081000C1F0789490913601A6CF113009F49CC0B4
:10082000123009F4C2C01D3308F4A5C080912F0115
:1008300086FDE7C080912B0190912C01892F8CB906
:10084000E8CFAC98109230011D3308F44FC011333B
:1008500009F408C1123309F4E9C0133309F45FC184
:10086000143309F440C1153309F49DC1163309F45A
:1008700097C1173309F421C2183309F41BC2193385
:1008800009F41EC21A3309F412C21B3309F4A2C1BF
:100890001C3309F48BC11E3309F4D0C1809163006D
:1008A0009091640030912E0120916000220F230F5F
:1008B000220F31E0892B09F430E0230F2CB9A9CFA6
:1008C0001F3309F46FC01E3309F4A2C01C3309F4AE
:1008D0009BC01D3309F4A4C082B3412F4F71440F54
:1008E000440F8378482B42BB1CB893CF78BA10339F
:1008F00008F073C160916200611781F251E0C8177E
:10090000D90709F050E0E12FF0E0EE0FFF1FE50FEF
:10091000F11DEE0FFF1FE959FF4F80819181E62FF6
:10092000F0E020913701EE0FFF1FE20FF11DEE0FF7
:10093000FF1FE959FF4F20813181611708F044C042
:10094000C098821B930B9093640080936300109374
:10095000620050933701A2CF80912F01806880936D
:100960002F0180912801909129019CB9B092290111
:10097000A09228014ECF11112FC080912B01909190
:100980002C019CB980912F01807880932F01809158
:100990002F0187FD42C080E099E190932901809367
:1009A000280137CFA99A1CB834CF80912F018F77B7
:1009B00080932F0180912801909129019CB99092F8
:1009C00029018092280125CFC09A281B390B30932A
:1009D000640020936300BBCF80912F0186FD1BC074
:1009E00080912B0190912C01892F8CB980912E013F
:1009F00081110FCF80912F01807C812B80932F015B
:100A000008CF80E08CB905CFD0922D011CB801CF62
:100A1000A9981CB8FECE80E0E8CF80E096EEBDCF6E
:100A200010922E0110922D011CB8F3CE409162005D
:100A3000E42FF0E02091370130E0EE0FFF1FE20FCE
:100A4000F31FEE0FFF1FE959FF4F8081918102963E
:100A500091838083442319F1C098F0926400E0925E
:100A600063001CCF20916200A22FB0E0E09137011B
:100A7000F0E0AA0FBB1FAE0FBF1FAA0FBB1FA959E3
:100A8000BF4F8D919C91119701978D939C93222339
:100A9000C1F0C09A3092640020926300FFCEF90149
:100AA000EE0FFF1FE559FF4F8FE290E0208131816B
:100AB0002E5F3F4F31832083019734960097B1F723
:100AC000CBCFEE0FFF1FE559FF4F2FE230E08081C3
:100AD00091810197918380832150310934962115AA
:100AE0003105A9F7D6CF40916200E42FF0E02091C4
:100AF000370130E0EE0FFF1FE20FF31FEE0FFF1F75
:100B0000E959FF4F8081918104969183808344232A
:100B100011F1C0985092640040926300BFCE4091A2
:100B20006200E42FF0E02091370130E0EE0FFF1F6C
:100B3000E20FF31FEE0FFF1FE959FF4F80819181F4
:100B40000297918380834423C1F0C09AF09264009D
:100B5000E0926300A3CEF901EE0FFF1FE559FF4FAE
:100B60008FE290E0208131812C5F3F4F31832083E1
:100B7000019734960097B1F7CCCFF901EE0FFF1F24
:100B8000E559FF4F81E090E0208131812250310909
:100B9000318320830196349680339105A9F7D5CF10
:100BA00088E036DD7BCE8CEF33DD78CE309264008A
:100BB000209263009A990BC0C09880916B0090912D
:100BC0006C009093640080936300D0923801D092BF
:100BD000330164CE80EE1CDD61CE103309F037CED8
:100BE00020916200A22FB0E0E0913701F0E0AA0F5F
:100BF000BB1FAE0FBF1FAA0FBB1FA959BF4F8D91BF
:100C00009C91119701968D939C93211111C0EE0F29
:100C1000FF1FE559FF4F2FE230E08081918101965F
:100C20009183808321503109349621153105A9F72C
:100C3000C098309264002092630030CE80916300AF
:100C40009091640030912E0120916000220F230FBB
:100C5000220F31E0892B09F430E0230F2CB903E097
:100C600010E0C7E6D0E068817981C80131D0A8954D
:100C70006A817B81C80102962BD0A89524960C5FCF
:100C80001F4F81E0C732D80771F7DF91CF911F91D5
:100C90000F91FF90EF90DF90CF90BF90AF909F901B
:100CA0008F907F905F904F903F902F90089580E2BB
:100CB000AFDCF4CD80E1ACDCF1CD88EFA9DCEECD8A
:100CC00080EFA6DCEBCDA8E1B0E042E050E005C04B
:100CD00012D0272F11C0DC01CB01FC01E199FECF1E
:100CE00006C0FFBBEEBBE09A31960DB20D924150AB
:100CF0005040B8F70895262FE199FECF9FBB8EBBD9
:100D00002DBB0FB6F894E29AE19A0FBE01960895B2
:040D1000F894FFCF85
:020D14000128B4
:00000001FF
