:1000000012C12CC12BC12AC129C128C127C126C1B7
:1000100025C124C123C1FCC1A3C220C1ABC21EC1E2
:100020001DC11CC11BC10000000000000000000039
:1000300000000000000000000000000000000300BD
:1000400000000100000003000000030000000700A2
:1000500000000300000007000000070000000F0080
:100060000000070000000F0000000F0000001F004C
:1000700000000F0000001F0000001F0000003F00F4
:1000800000001F0000003F0000003F0000007F0054
:1000900000003F0000007F0000007F000000FF0024
:1000A00000007F000000FF000000FF000000FF01D3
:1000B0000000FF000000FF010000FF010000FF033F
:1000C0000000FF010000FF030000FF030000FF0726
:1000D0000000FF030000FF070000FF070000FF0F04
:1000E0000000FF070000FF0F0000FF0F0000FF1FD0
:1000F0000000FF0F0000FF1F0000FF1F0000FF3F78
:100100000000FF1F0000FF3F0000FF3F0000FF7FD7
:100110000000FF3F0000FF7F0000FF7F0000FFFFA7
:100120000000FF7F0000FFFF0000FFFF0000FFFF57
:100130000100FFFF0000FFFF0100FFFF0100FFFFC4
:100140000300FFFF0100FFFF0300FFFF0300FFFFAD
:100150000700FFFF0300FFFF0700FFFF0700FFFF8F
:100160000F00FFFF0700FFFF0F00FFFF0F00FFFF63
:100170001F00FFFF0F00FFFF1F00FFFF1F00FFFF1B
:100180003F00FFFF1F00FFFF3F00FFFF3F00FFFF9B
:100190007F00FFFF3F00FFFF7F00FFFF7F00FFFFAB
:1001A000FF00FFFF7F00FFFFFF00FFFFFF00FFFFDB
:1001B000FF01FFFFFF00FFFFFF01FFFFFF01FFFF48
:1001C000FF03FFFFFF01FFFFFF03FFFFFF03FFFF31
:1001D000FF07FFFFFF03FFFFFF07FFFFFF07FFFF13
:1001E000FF0FFFFFFF07FFFFFF0FFFFFFF0FFFFFE7
:1001F000FF1FFFFFFF0FFFFFFF1FFFFFFF1FFFFF9F
:10020000FF3FFFFFFF1FFFFFFF3FFFFFFF3FFFFF1E
:10021000FF7FFFFFFF3FFFFFFF7FFFFFFF7FFFFF2E
:10022000FFFFFFFFFF7F11241FBECFE5D4E0DEBF3D
:10023000CDBF10E0A0E6B0E0E0E3FDE002C0059035
:100240000D92A236B107D9F721E0A2E6B0E001C0D5
:100250001D92A933B207E1F720D268C5D1CE8091B3
:100260003301882329F180913801882349F0809156
:10027000630090916400892BD9F41092380108959D
:100280009A9917C088E280936100809167009091ED
:100290006800909364008093630080916300909164
:1002A000640097FD13C0C098109233011092600053
:1002B000089510926200C09A80E09DE790936400D8
:1002C0008093630084E0809361000895C09A8091D8
:1002D00063009091640091958195910990936400D9
:1002E00080936300E1CF80913301882359F080919E
:1002F0003801882371F18091630090916400892B0B
:1003000009F461C090916100809166008F5F8093D5
:100310006600981730F48091630090916400892BF7
:1003200089F5809165008F5F8B3FE8F11092650041
:10033000809163009091640081329340C4F5809174
:10034000610091E08E31E8F5890F80936100C198DA
:1003500008959A9942C088E2809361008091670075
:100360009091680090936400809363008091630093
:100370009091640097FD3FC0C09810923301109295
:100380006000C0CF1092660080916300909164007D
:1003900001979093640080936300C19A80916500F7
:1003A0008F5F8B3F18F680936500C1980895809108
:1003B000610091E0823060F0891B80936100C198F8
:1003C000089590E0C1CF10923801909161009CCFC8
:1003D00090E0891B80936100F2CF10926200C09A76
:1003E00080E09DE7909364008093630084E08093B5
:1003F000610094E089CFC09A80916300909164007D
:100400009195819591099093640080936300B5CF95
:100410001F920F920FB60F9211242F933F934F9379
:100420005F936F937F938F939F93AF93BF93EF935C
:10043000FF93CF93DF9300D0CDB7DEB78091320129
:1004400080932A018CB18093320180913101811116
:1004500022C08F98979880912A01811107C08091BE
:100460003201811103C082E0809327010F900F9029
:10047000DF91CF91FF91EF91BF91AF919F918F91BC
:100480007F916F915F914F913F912F910F900FBE90
:100490000F901F901895809127018F5F80932701FF
:1004A00081B380933401369A1A82198289819A81A4
:1004B0004E974CF489819A8101969A838983898128
:1004C0009A814E97BCF30FDF80912D01882351F064
:1004D0009B9908C081E080932E0180912F01807844
:1004E00080932F0180912F0186FF32C0E0E0F0E081
:1004F00080913501EE0FFF1FEE0FFF1FEE0FFF1F64
:10050000869586958695E80FF11DEA5DFF4FE4918B
:1005100080913501F0E0877002C0F595E7958A95E6
:10052000E2F7E0FF1AC080912F0192B39F778078A5
:10053000892B82BB8F9A809135018F5F8093350123
:10054000809135018F3309F091CF109235018ECF14
:10055000E0912F01EF73F0E0CBCF97988F98EBCF1E
:100560001F920F920FB60F9211240F900FBE0F9093
:100570001F9018951F920F920FB60F9211242F9370
:100580003F934F938F939F9324B185B190E0982F21
:100590008827820F911D20912B0130912C014091D1
:1005A000340147FD1FC0820F931F0024220F331F09
:1005B000001C220F331F001C232F302D821B930B96
:1005C0002091340127FD13C090932C0180932B01BF
:1005D0009F918F914F913F912F910F900FBE0F9050
:1005E0001F9018952091280130912901DCCF9C01A2
:1005F000215036442F3F324730F48F9820912F01FD
:10060000206420932F019093290180932801E0CF4B
:1006100090916200E92FF0E04091370150E0682F9F
:10062000082E000C770BEE0FFF1FE40FF51FEE0FE7
:10063000FF1FE959FF4F20813181260F371F31837A
:100640002083911111C0440F551FFA01E959FF4F42
:100650004D5D5E4F24813581260F371F35832483FE
:100660003496E417F507B1F787FD06C0C09870937C
:100670006400609363000895C09A71956195710953
:1006800070936400609363000895811102C0AC9A76
:100690000895AC981092300108952F923F924F9296
:1006A0005F926F927F928F929F92AF92BF92CF9202
:1006B000DF92EF92FF920F931F93CF93DF938CE71C
:1006C00081BB82BB82E384BB8FE387BB8CE188BBA9
:1006D0008FE886B903E010E0B7E6EB2EB0E0FB2E22
:1006E000C3EC4C2EC0E05C2E6701E801CE01F9D2CC
:1006F000F60191838083CE010296F3D2F6019383B3
:1007000082832496F4E0CF0ED11C20E0C33CD207B4
:1007100069F78FE189B988E98AB9109227018FE7D3
:100720008093360181E08093320180932A019AE020
:1007300088E10FB6F894A89581BD0FBE91BD78945D
:10074000AC981092300190913601D1E0CC24C39442
:10075000D12CE2E0AE2EB12C612CF6EE7F2E212CB6
:10076000A9E13A2E809127018230E1F7109227010A
:100770009150C1F39093360180912A01811123C0D9
:100780008091320181111FC08FE780933601109252
:100790003501D0933201D0932A01D0933101809159
:1007A000630090916400892B39F4809130018F5F50
:1007B000809330018A3F19F09FE7A895D3CFAC9A78
:1007C00090913601FACF80902A0180913201837096
:1007D000912C982AC0913201C695C69580E090E090
:1007E00080D2F89488159905A9F09C012F5F3F4F9E
:1007F0002815390509F461C09C012E5F3F4F03960F
:1008000028153905D9F088159905C1F0789490918B
:100810003601A8CFC13009F4A3C0C23009F4C6C064
:10082000CD3308F4ACC080912F0186FDEEC08091DD
:100830002B0190912C01892F8CB9E8CFAC981092A4
:100840003001CD3308F455C0C13309F407C1C233B8
:1008500009F4E7C0C33309F470C1C43309F44EC1CD
:10086000C53309F4AEC1C63309F4A8C1C73309F4CE
:1008700032C2C83309F42CC2C93309F42FC2CA33B7
:1008800009F423C2CB3309F4B3C1CC3309F49CC1BE
:10089000CE3309F4E1C1209163003091640080916E
:1008A0002E0190916000990F890F880F91E0232B02
:1008B00009F490E0890F8CB9A9CFCF3309F48DC02A
:1008C000CE3309F4A9C0CC3309F4A2C0CD3309F466
:1008D00009C1CA3309F40FC1CB3309F409C182B38A
:1008E0009C2F9F71990F990F8378892B82BB1CB81D
:1008F0008DCFE8E1E8BBC03308F07DC150916200C4
:100900005C1749F241E08816990609F040E0EC2FA7
:10091000F0E0EE0FFF1FE40FF11DEE0FFF1FE9598E
:10092000FF4F80819181E52FF0E020913701EE0F9C
:10093000FF1FE20FF11DEE0FFF1FE959FF4F20814E
:1009400031815C1708F041C0C098821B930B9093D3
:10095000640080936300C0936200409337019BCF93
:1009600080912F01806880932F01809128019091C0
:1009700029019CB9709229016092280147CFC111C9
:100980002FC080912B0190912C019CB980912F0157
:10099000807880932F0180912F0187FDA0C080E097
:1009A00099E1909329018093280130CF80912F0104
:1009B0008F7780932F0180912801909129019CB914
:1009C000309229012092280121CFC09A281B390B8F
:1009D0003093640020936300BECFA99A1CB816CF51
:1009E00080912F0186FD1BC080912B0190912C01DD
:1009F000892F8CB980912E01811108CF80912F0110
:100A0000807CC82BC0932F0101CF80E08CB9FECE33
:100A1000D0932D011CB8FACEA9981CB8F7CE80E06F
:100A2000E8CF40916200E42FF0E08091370190E040
:100A3000EE0FFF1FE80FF91FEE0FFF1FE959FF4FE1
:100A4000208131812E5F3F4F31832083442319F170
:100A5000C098B0926400A09263001DCF40916200E4
:100A6000E42FF0E08091370190E0EE0FFF1FE80FD8
:100A7000F91FEE0FFF1FE959FF4F208131812150EF
:100A80003109318320834423C1F0C09AD09264009D
:100A9000C092630000CF880F991FFC01E959FF4FF6
:100AA0008D5D9E4F248135812E5F3F4F358324839A
:100AB0003496E817F907B1F7CBCF880F991FFC01DF
:100AC000E959FF4F8D5D9E4F2481358121503109B9
:100AD000358324833496E817F907B1F7D6CF80E041
:100AE00096EE5FCF10922E0110922D011CB88ECE83
:100AF000AD981CB88BCEAD9A1CB888CE40916200E0
:100B0000E42FF0E08091370190E0EE0FFF1FE80F37
:100B1000F91FEE0FFF1FE959FF4F208131812C5F34
:100B20003F4F31832083442329F1C09884E090E033
:100B30009093640080936300AECE40916200E42FF6
:100B4000F0E08091370190E0EE0FFF1FE80FF91FF2
:100B5000EE0FFF1FE959FF4F2081318122503109EB
:100B6000318320834423C1F0C09AB0926400A092E4
:100B7000630091CE880F991FFC01E959FF4F8D5DED
:100B80009E4F248135812C5F3F4F358324833496DB
:100B9000E817F907B1F7C9CF880F991FFC01E95988
:100BA000FF4F8D5D9E4F2481358122503109358361
:100BB00024833496E817F907B1F7D6CF88E028DD0B
:100BC0006ACE8CEF25DD67CED0926400C0926300C0
:100BD0009A990BC0C09880916B0090916C00909393
:100BE000640080936300D0933801D093330153CED7
:100BF00080EE0EDD50CEC03309F026CE409162006B
:100C0000E42FF0E08091370190E0EE0FFF1FE80F36
:100C1000F91FEE0FFF1FE959FF4F208131812F5F30
:100C20003F4F31832083411111C0880F991FFC0170
:100C3000E959FF4F8D5D9E4F248135812F5F3F4FD6
:100C4000358324833496E817F907B1F7C098D0921A
:100C50006400C09263001FCE209163003091640055
:100C600080912E0190916000990F890F880F91E07B
:100C7000232B09F490E0890F8CB9F7016081718111
:100C8000C80134D0A895F70162817381C80102962A
:100C90002DD0A895F4E0EF0EF11C0C5F1F4F40160D
:100CA000510659F7DF91CF911F910F91FF90EF906F
:100CB000DF90CF90BF90AF909F908F907F906F907C
:100CC0005F904F903F902F90089580E2A1DCE3CD9C
:100CD00080E19EDCE0CD88EF9BDCDDCD80EF98DC11
:100CE000DACDA8E1B0E042E050E005C012D0272FF5
:100CF00011C0DC01CB01FC01E199FECF06C0FFBBB6
:100D0000EEBBE09A31960DB20D9241505040B8F7CB
:100D10000895262FE199FECF9FBB8EBB2DBB0FB64A
:100D2000F894E29AE19A0FBE01960895F894FFCFE5
:020D3000012898
:00000001FF
