:100000002C0103000000009A029A0235053505D044
:1000100007D0076A0A6A0A050D050DA00FA00F3A5E
:10002000123A12D514D514701770170A1A0A1AA5A5
:100030001CA51C401F401FDA21DA217524752410ED
:10004000271027AA29AA29452C452CE02EE02E7A34
:10005000317A3115341534B036B0364A394A39E57B
:100060003BE53B803E803E1A411A41B543B54350C3
:10007000465046EA48EA48854B854B204E204EBA0A
:1000800050BA5055535553F055F0558A588A582553
:100090005B255BC05DC05D5A605A60F562F5629099
:1000A0006590652A682A68C56AC56A606D606DFAE0
:1000B0006FFA6F9572957230753075CA77CA776529
:0300C0007A657AE4
:00000001FF
