:1000000012C12CC12BC12AC129C128C127C126C1B7
:1000100025C124C123C1DEC166C220C16EC21EC17A
:100020001DC11CC11BC10000000000000000000039
:1000300000000000000000000000000000000300BD
:1000400000000100000003000000030000000700A2
:1000500000000300000007000000070000000F0080
:100060000000070000000F0000000F0000001F004C
:1000700000000F0000001F0000001F0000003F00F4
:1000800000001F0000003F0000003F0000007F0054
:1000900000003F0000007F0000007F000000FF0024
:1000A00000007F000000FF000000FF000000FF01D3
:1000B0000000FF000000FF010000FF010000FF033F
:1000C0000000FF010000FF030000FF030000FF0726
:1000D0000000FF030000FF070000FF070000FF0F04
:1000E0000000FF070000FF0F0000FF0F0000FF1FD0
:1000F0000000FF0F0000FF1F0000FF1F0000FF3F78
:100100000000FF1F0000FF3F0000FF3F0000FF7FD7
:100110000000FF3F0000FF7F0000FF7F0000FFFFA7
:100120000000FF7F0000FFFF0000FFFF0000FFFF57
:100130000100FFFF0000FFFF0100FFFF0100FFFFC4
:100140000300FFFF0100FFFF0300FFFF0300FFFFAD
:100150000700FFFF0300FFFF0700FFFF0700FFFF8F
:100160000F00FFFF0700FFFF0F00FFFF0F00FFFF63
:100170001F00FFFF0F00FFFF1F00FFFF1F00FFFF1B
:100180003F00FFFF1F00FFFF3F00FFFF3F00FFFF9B
:100190007F00FFFF3F00FFFF7F00FFFF7F00FFFFAB
:1001A000FF00FFFF7F00FFFFFF00FFFFFF00FFFFDB
:1001B000FF01FFFFFF00FFFFFF01FFFFFF01FFFF48
:1001C000FF03FFFFFF01FFFFFF03FFFFFF03FFFF31
:1001D000FF07FFFFFF03FFFFFF07FFFFFF07FFFF13
:1001E000FF0FFFFFFF07FFFFFF0FFFFFFF0FFFFFE7
:1001F000FF1FFFFFFF0FFFFFFF1FFFFFFF1FFFFF9F
:10020000FF3FFFFFFF1FFFFFFF3FFFFFFF3FFFFF1E
:10021000FF7FFFFFFF3FFFFFFF7FFFFFFF7FFFFF2E
:10022000FFFFFFFFFF7F11241FBECFE5D4E0DEBF3D
:10023000CDBF10E0A0E6B0E0EAE7FAE002C005902A
:100240000D92A236B107D9F711E0A2E6B0E001C0E5
:100250001D92A833B107E1F7E3D10DC4D1CE80914F
:1002600033018823C1F09A9917C088E28093610016
:100270008091670090916800909364008093630080
:10028000809163009091640097FD13C0C098109214
:10029000330110926000089510926200C09A80E0CD
:1002A0009DE7909364008093630084E080936100F5
:1002B0000895C09A80916300909164009195819512
:1002C00091099093640080936300E1CF80913301A2
:1002D0008823C1F09A995CC088E280936100809184
:1002E0006700909168009093640080936300809110
:1002F00063009091640097FD60C0C0981092330134
:100300001092600090916100809166008F5F8093F1
:100310006600981730F48091630090916400892BF7
:10032000C1F4809165008F5F8B3F20F110926500D2
:10033000809163009091640081329340FCF480913D
:10034000610091E08E3190F5890F80936100C19832
:100350000895109266008091630090916400019767
:100360009093640080936300C19A809165008F5FD1
:100370008B3FE0F680936500C198089580916100FD
:1003800091E08230A8F0891B80936100C1980895A4
:1003900010926200C09A80E09DE790936400809381
:1003A000630084E08093610094E0AECF90E0CCCF16
:1003B00090E0891B80936100E9CFC09A809163002F
:1003C0009091640091958195910990936400809338
:1003D000630094CF1F920F920FB60F9211242F93A8
:1003E0003F934F935F936F937F938F939F93AF93BD
:1003F000BF93EF93FF938091320180932A018CB1D8
:10040000809332018091310181111EC08F9897989D
:1004100080912A01811107C080913201811103C0AE
:1004200082E080932701FF91EF91BF91AF919F915F
:100430008F917F916F915F914F913F912F910F908D
:100440000FBE0F901F901895809127018F5F8093AA
:10045000270181B380933401369A38DF80912D01D2
:10046000882351F09B9908C081E080932E018091F0
:100470002F01807880932F01E0912F018091350129
:10048000EF73F0E0EE0FFF1FEE0FFF1FEE0FFF1FE9
:10049000869586958695E80FF11DEA5DFF4FE491FC
:1004A00080913501F0E0877002C0F595E7958A9557
:1004B000E2F7E0FD0FC097988F98809135018F5F2C
:1004C00080933501809135018F3309F0ACCF1092C4
:1004D0003501A9CF90912F0182B38F779078892B26
:1004E00082BB8F9AEACF1F920F920FB60F92112400
:1004F0000F900FBE0F901F9018951F920F920FB67E
:100500000F9211242F933F934F938F939F9324B176
:1005100085B190E0982F8827820F911D20912B01A3
:1005200030912C014091340147FD1FC0820F931F71
:100530000024220F331F001C220F331F001C232F07
:10054000302D821B930B2091340127FD13C0909313
:100550002C0180932B019F918F914F913F912F916F
:100560000F900FBE0F901F90189520912801309189
:100570002901DCCF9C01215036442F3F334630F413
:100580008F9820912F01206420932F0190932901AF
:1005900080932801E0CF90916200E92FF0E070E0B5
:1005A000A82FBB27A7FDB095EE0FFF1FE60FF71F83
:1005B000EE0FFF1FE959FF4F208131812A0F3B1FAA
:1005C00031832083911113C0FB01EE0FFF1FE5590A
:1005D000FF4F4FE250E0208131812A0F3B1F3183D2
:1005E000208341505109349641155105A1F787FDEB
:1005F00006C0C098B0936400A09363000895C09AA9
:10060000B195A195B109B0936400A09363000895DA
:10061000811102C0AC9A0895AC98109230010895EF
:10062000CF93DF931F92CDB7DEB78CE781BB82BB40
:1006300082E184BB8FE387BB8CE188BB8FE886B9FE
:1006400007E610E073E0C72E70E0D72EC601EED1AA
:10065000F80191838083C6010296E8D1F801938363
:100660008283F4E0CF0ED11C0C5F1F4F83ECC816C1
:1006700080E0D80659F78FE189B988E98AB91092E4
:1006800027018FE78093360181E0809332018093C8
:100690002A012AE088E190E00FB6F894A89581BD80
:1006A0000FBE21BD7894AC9AFF24F3946624639422
:1006B000712C48E1942EA12C59E1B52E00E016EEE4
:1006C0006FE7E62E90913601809127018230E1F7A5
:1006D000109227018FEF890F11F490E0F5CF8093EE
:1006E000360180912A0181111EC080913201811151
:1006F0001AC0E092360110923501F0923201F09268
:100700002A01F09231018091630090916400892B5D
:1007100041F4809130018F5F809330018A3F09F46A
:10072000AC9AA895CFCFC0902A01809132018370F6
:10073000D12CD82A409132014695469580E090E030
:10074000498374D1F89449818C159D0599F09C01D9
:100750002F5F3F4F2C153D0509F46CC09C012E5FA7
:100760003F4F03962C153D05C9F08C159D05B1F042
:100770007894A8CF413009F4FDC0423009F4EBC0B1
:100780004D3308F4CDC080912F0186FDC6C0809105
:100790002B0190912C01892F8CB9EACF61E0C8160A
:1007A000D90609F060E0AC98109230014D3308F0A2
:1007B0005CC098BA403308F003C1509162005417EE
:1007C00039F1E42FF0E0EE0FFF1FE60FF11DEE0F01
:1007D000FF1FE959FF4F80819181E52FF0E02091C3
:1007E0003701EE0FFF1FE20FF11DEE0FFF1FE9595A
:1007F000FF4F20813181541780F5C098821B930BE5
:10080000909364008093630040936200609337018B
:10081000809163009091640030912E0120916000DE
:10082000220F230F220F31E0892B09F430E0230F30
:100830002CB99ECF4F3371F04E3349F082B34F71D4
:10084000440F440F8378482B42BB1CB891CFA99822
:100850001CB88ECFA99A1CB88BCFC09A281B390B15
:100860003093640020936300CFCF413309F4DBC0A1
:10087000423309F4D5C0433309F4CFC0443309F4FB
:10088000C9C0453309F4C3C0463309F4BDC047337A
:1008900009F4B7C0483309F4B1C0493309F4ABC017
:1008A0004A3309F4A5C04B3309F49FC04C3309F413
:1008B00093C04D3309F48DC04E3309F0A9CF78941D
:1008C000809163009091640020912E01220F31E00D
:1008D000892B09F430E0230F2CB933E0432E30E0AC
:1008E000532E47E6C42E40E0D42EF601608171817C
:1008F000C201A1D0F60162817381C20102969BD030
:10090000F4E0CF0ED11C84E0480E511CE7E2CE1675
:10091000E1E0DE0651F7F8942BCF80E08CB928CFC8
:10092000411137C080912B0190912C019CB980918D
:100930002F01807880932F0110922E0110922D01AB
:1009400080912F0187FD42C080E099E190932901B9
:10095000809328010DCF80912F018F7780932F01F5
:1009600080912801909129019CB9B0922901A0920F
:100970002801FECE80912F01806880932F01809105
:100980002801909129019CB9109329010093280115
:10099000EFCE80912F0186FD11C080912B019091A7
:1009A0002C01892F8CB980912E018111E1CE80918B
:1009B0002F01807C842B80932F01DACE80E0F2CF50
:1009C000403309F052CF81E0E6DD22CF80E096EEA1
:1009D000BDCFF0922D011CCF9A9B1ACFF09233011C
:1009E000709264006092630013CF80EED4DD10CF6C
:1009F00080E2D1DD0DCF80EFCEDD0ACF80E1CBDD0F
:100A000007CF88EFC8DD04CF88E0C5DD01CF8CEFCC
:100A1000C2DDFECE84E0BFDDFBCE8EEFBCDDF8CEC6
:100A200082E0B9DDF5CE8FEFB6DDF2CEA8E1B0E021
:100A300042E050E005C012D0272F11C0DC01CB01ED
:100A4000FC01E199FECF06C0FFBBEEBBE09A3196F8
:100A50000DB20D9241505040B8F70895262FE199FC
:100A6000FECF9FBB8EBB2DBB0FB6F894E29AE19AE6
:0A0A70000FBE01960895F894FFCF21
:020A7A00012851
:00000001FF
